:100000000C9434000C9449000C9449000C94490061
:100010000C9449000C9449000C9449000C9449003C
:100020000C9449000C9449000C9449000C9449002C
:100030000C9449000C9449000C9449000C9449001C
:100040000C9449000C9449000C9449000C9449000C
:100050000C9449000C9449000C9449000C944900FC
:100060000C9449000C94490011241FBECFEFD8E036
:10007000DEBFCDBF11E0A0E0B1E0E2EDF1E102C0F2
:1000800005900D92AC33B107D9F70E9424030C946C
:10009000E7080C9400000F931F93009781F06115FF
:1000A0007105A1F54115510509F040C02115310533
:1000B000E9F5012B09F050C021E030E055C0611591
:1000C000710561F44115510599F421153105B9F512
:1000D00001151105B1F122E030E046C0411551058E
:1000E00051F12115310559F00115110541F431C0C7
:1000F00021153105A1F00115110589F42AC021153A
:100100003105C9F401151105B1F423C0411551059C
:1001100069F02115310551F4012BF1F41AC02115B4
:10012000310559F00115110541F013C001151105F4
:1001300099F4892BA1F4672B49F4452B39F4232B2F
:1001400029F4012B79F425E030E00EC0012B51F4A5
:1001500006C023E030E008C024E030E005C026E01F
:1001600030E002C027E030E0C9011F910F910895EF
:100170003898409A3998419A3A98429A3B98439ACB
:100180003C98449A08955598569853982398089502
:100190002198299A24982C9A25982D9A08959C01A3
:1001A0002F5F3F4F2436310510F020E030E0261756
:1001B000370718F45E9A5D9802C05E9A5D9AC9018D
:1001C00008959C012F5F3F4F2436310510F020E049
:1001D00030E02617370718F42B9A5B9802C05B9A19
:1001E0002B9AC90108959C012F5F3F4F243631059A
:1001F00010F020E030E02617370718F45D9A5E987B
:1002000002C05E9A5D9AC90108956230710591F04D
:100210006330710524F46130710599F407C06330CF
:10022000710541F06430710561F408C0BA010E94A3
:10023000F3000895BA010E94CF000895BA010E9408
:10024000F30008959C012F5F3F4F2436310510F0D5
:1002500020E030E02617370718F45B9A2B9802C08D
:100260002B9A5B9AC90108956F927F928F929F9209
:10027000AF92BF92CF92DF92EF92FF920F931F93B4
:10028000CF93DF936C017B01CA014A0133E0880CF4
:10029000991C3A95E1F7880F991F880E991E00E086
:1002A00010E0C0E0D0E0AA24BB2484EF682E81E0F7
:1002B000782E3AC082E0C816D104B9F083E0C8169F
:1002C000D1042CF481E0C816D10441F509C083E0C3
:1002D000C816D10479F084E0C816D104F9F414C02A
:1002E000CE01B7010E94CF0013C0CE01B7010E941A
:1002F000F30004C0CE01B7010E94CF00EC01C80199
:10030000B7010E94E10009C0CE01B7010E94F300CD
:10031000EC01C801B7010E9422018C01C3010197C1
:10032000F1F70894A11CB11C8A149B041CF6DF9100
:10033000CF911F910F91FF90EF90DF90CF90BF90E2
:10034000AF909F908F907F906F900895AC0182E066
:1003500090E06FE070E00E9434010895AC0181E00C
:1003600090E06FE070E00E94340108956230710502
:1003700071F06330710524F46130710599F40BC09C
:100380006330710541F06430710561F408C0BA0151
:100390000E9422010895BA010E94E1000895BA0165
:1003A0000E94220108955B9A2B9A5D9A5E9A0895A5
:1003B0008417950719F460E070E004C0892B11F4EC
:1003C00061E070E0CB0108950895CF93DF93EC01D5
:1003D0004130510551F48332910519F4C9E1D0E05F
:1003E00012C08D32910579F40CC06130710559F459
:1003F0008332910519F4CDE2D0E005C08931910531
:1004000011F4C3E2D0E08CE090E00E94AD0581E001
:1004100090E00E94AD05C931D10519F480E091E06A
:100420000BC0C332D10519F485E091E005C0CD328F
:10043000D10521F48CE091E00E94990584EF91E0D0
:1004400024EF31E0F9013197F1F70197D9F7CE01A7
:10045000DF91CF9108950E94D3018CE090E00E943B
:10046000AD0581E090E00E94AD0581E191E00E9440
:10047000990580E061E00E94A50585E191E00E9478
:10048000990580E197E224EF31E0F9013197F1F726
:100490000197D9F78CE090E00E94AD0581E090E0F3
:1004A0000E94AD058DE191E00E94990588E293E2FA
:1004B00024EF31E0F9013197F1F70197D9F7089569
:1004C000CF92DF92EF92FF920F931F93DF93CF9320
:1004D000CDB7DEB7E2970FB6F894DEBF0FBECDBF43
:1004E0007C016B018CE090E00E94AD0581E090E022
:1004F0000E94AD0586E291E00E94990580E061E0EE
:100500000E94A5058DE191E00E94990588E893E19C
:1005100024EF31E0F9013197F1F70197D9F78CE039
:1005200090E00E94AD0581E090E00E94AD058DE273
:1005300091E00E9499058DB79EB708970FB6F89481
:100540009EBF0FBE8DBFEDB7FEB731968E010F5F18
:100550001F4FADB7BEB712961C930E93119786E34B
:1005600091E093838283F582E482D782C6820E94DF
:10057000EB058DB79EB708960FB6F8949EBF0FBED9
:100580008DBF80E061E00E94A505C8010E94990529
:10059000E2960FB6F894DEBF0FBECDBFCF91DF91CC
:1005A0001F910F91FF90EF90DF90CF900895EF9201
:1005B000FF920F931F93DF93CF93CDB7DEB7C4564F
:1005C000D0400FB6F894DEBF0FBECDBF7C014130E6
:1005D000510541F482E0E816F10454F00894E10872
:1005E000F10806C06130710519F40894E11CF11C92
:1005F0008CE090E00E94AD0581E090E00E94AD05A6
:10060000C7018E010F5F1F4FB8014AE050E00E9402
:10061000CA05C8010E94990584EF91E024EF31E0FA
:10062000F9013197F1F70197D9F7C701CC59DF4F9D
:100630000FB6F894DEBF0FBECDBFCF91DF911F91F3
:100640000F91FF90EF9008952F923F924F925F92FB
:100650006F927F928F929F92AF92BF92CF92DF92D2
:10066000EF92FF920F931F93DF93CF93CDB7DEB737
:1006700063970FB6F894DEBF0FBECDBF83B1282FAE
:1006800030E0227030703B8B2A8B83B1082F10E052
:100690000071107083B1E82EFF2430E2E322FF24C2
:1006A0000E945C050E94B8000E94C3000E94C8001E
:1006B0001A86198618861F821E821D8289E1882E5D
:1006C000912C44245524CC24DD24AA24BB24662464
:1006D0007724222433241C821B821A82198286B139
:1006E000898B96B1988BE6B1EF87F6B1FE8726B17C
:1006F0002D8783B190E082709070EA89FB898E1714
:100700009F0719F41A86198606C0892B21F421E067
:1007100030E03A87298749855A8533B13C8783B1D0
:1007200090E0807190708017910719F418861F82ED
:1007300006C0892B21F481E090E098878F836F8138
:10074000788593B19B8783B190E0807290708E150D
:100750009F0519F41E821D8206C0892B21F4E1E059
:10076000F0E0FE83ED83F3B02D813E812130310531
:1007700019F40894611C711C31E06316710471F066
:1007800081E06816710428F092E06916710451F452
:1007900034C0C4010E94E5014C0104C0C2010E94A2
:1007A000D7022C01E9898E2F90E081709070FD8531
:1007B0000F2F10E000711070B4E015950795BA95F1
:1007C000E1F723E0C216D104E9F134E0C316D10405
:1007D00050F4E1E0CE16D10481F0F2E0CF16D1045E
:1007E00009F066C011C024E0C216D104B9F135E0A9
:1007F000C316D10409F05CC059C083E090E060E00A
:1008000070E04CED55E04CC0E8896E2F70E06270EE
:10081000707075956795FF854F2F50E0447050704C
:100820005595479555954795EE852E2F30E02870C4
:100830003070E3E035952795EA95E1F70E944B008B
:100840005C0136C083E090E06FE070E044EB50E084
:100850000E94340174E0C72ED12C53C0892B11F0B3
:10086000012B01F50E94D3010894211C311CC10108
:10087000B2010E9460022414350420F065E0C62E07
:10088000D12C16C084E090E06FE070E044EF51E0BE
:100890000E94340181E090E069E170E048E552E0B7
:1008A0000E94340152E0C52ED12C02C00E942B02BE
:1008B000F4E0AF16B10409F441C025E0A216B1047A
:1008C00070F432E0A316B10461F183E0A816B1041C
:1008D000A8F491E0A916B10409F061C015C0E6E0E2
:1008E000AE16B10409F44EC0F6E0AF16B104B8F18B
:1008F00027E0A216B10409F052C049C043E0C42E5B
:10090000D12CAA24BB244BC084E090E06FE070E0BF
:1009100048E250E00E94340184E091E00E94A60188
:100920003EC084E090E06FE070E048E250E00E945A
:10093000340184E091E00E94AE0131C084E090E097
:100940006FE070E048E552E00E94340181E090E001
:1009500069E170E04CEB52E00E94340120C08B81D1
:100960009C8163E070E0A4010E9405019C838B835D
:1009700089819A8163E070E0A4010E94B6019A83A4
:1009800089830DC084E190E00E94A60104C084E147
:1009900090E00E94AE0188E893E10197F1F79C8511
:1009A000892F90E0827090709B8B8A8BEB850E2F45
:1009B00010E000711070EF2CFF24F0E2EF22FF2412
:1009C00084EF91E00197F1F78ACE219A249A259A33
:1009D000579A0895219824982598579808955C9AD5
:1009E00086E08A95F1F700C089B1881F8827881FA3
:1009F000880F880F880F1D9984601C99826019994F
:100A000081605C98089580FF0CC0299A81FF0BC01B
:100A10002C9A82FF0AC02D9A83FF09C05F9A0C941A
:100A2000EF042998F3CF2C98F4CF2D98F5CF5F9849
:100A3000F6CFCF93DF935A980E94EA04289A0E9437
:100A4000EF04C82F0E94EF0490E1C99FE001112438
:100A50008C2B87FDF0CFDF91CF910895CF93C82FD6
:100A60000E94190528985A980E94E5048C2F8295B7
:100A70008F700E9403058C2F8F700E9403050E94C7
:100A8000EA048FE0CF910C940305CF93C82F0E9406
:100A9000190528985A9A0E94E5048C2F82958F7028
:100AA0000E9403058C2F8F700E9403050E94EA04A8
:100AB0008FE0CF910C94030528985A985C98529A2D
:100AC000209A549A0E94E5042FE58AEE90E0215086
:100AD00080409040E1F700C0000083E00E940305E1
:100AE0008FE295E70197F1F700C0000083E00E94D4
:100AF00003058FE097E20197F1F700C0000083E063
:100B00000E9403058FE097E20197F1F700C0000013
:100B100082E00E9403050E94190588E20E942E05CA
:100B200088E00E942E0581E00E942E0586E00C944C
:100B30002E05CF93DF93EC018991811103C0DF91E2
:100B4000CF9108950E944505F7CF90E4699FB001C9
:100B50001124862B80680C942E050C942E058F7022
:100B60008A3018F4805D0C944505895CFCCFCF93E6
:100B7000C82F82958F700E94AF058C2FCF910C9457
:100B8000AF05CF93C82F892F0E94B7058C2FCF9127
:100B90000C94B705FB019F01E8944230C4F0453244
:100BA000B4F44A3029F497FB1EF4909581959F4F39
:100BB000642F77270E949C08805D8A330CF0895D42
:100BC0008193CB010097A1F716F45DE25193108257
:100BD000C9010C940208AEE0B0E0E1EFF5E00C943E
:100BE000BE080D891E8986E08C831A8309838FEFE6
:100BF0009FE79E838D839E01275E3F4FCE01019626
:100C00006F89788DA9010E940F062F813885020F08
:100C1000131FF80110822E96E4E00C94DA08ABE082
:100C2000B0E0E5E1F6E00C94B0083C012B015A017C
:100C3000FC0117821682838181FD03C06FEF7FEF75
:100C4000C6C19AE0892E1E010894211C311CF301B3
:100C50002381F20123FD859123FF81912F018823B8
:100C600009F4B2C1853239F423FD859123FF8191C6
:100C70002F01853229F490E0B3010E941208E7CFDA
:100C8000982FFF24EE249924FFE1FF15D0F09B322A
:100C900069F09C3228F4903259F0933291F40EC0EE
:100CA0009D3249F0903369F441E024C052E0F52AC6
:100CB00084E0F82A28C098E0F92A25C0E0E1FE2A5D
:100CC00022C0F7FC29C0892F80538A3070F4F6FEC9
:100CD00005C0989C902C1124980E15C0E89CE02C1F
:100CE0001124E80EF0E2FF2A0EC09E3229F4F6FC31
:100CF0006BC140E4F42A07C09C3619F450E8F52A89
:100D000002C0983649F4F20123FD959123FF919199
:100D10002F01992309F0B8CF892F8554833018F01B
:100D20008052833038F444E050E0A40EB51E5FE3F7
:100D300059830FC0933631F0933779F0933509F02A
:100D400056C020C0F5018081898342E050E0A40EA6
:100D5000B51E610101E010E012C0F501C080D18034
:100D6000F6FC03C06FEF7FEF02C0692D70E042E038
:100D700050E0A40EB51EC6010E94F7078C015FE784
:100D8000F52214C0F501C080D180F6FC03C06FEFDE
:100D90007FEF02C0692D70E042E050E0A40EB51E66
:100DA000C6010E94EC078C0150E8F52AF3FE07C04B
:100DB0001AC080E290E0B3010E941208EA948E2DDE
:100DC00090E008171907A8F30EC0F601F7FC85910B
:100DD000F7FE81916F0190E0B3010E941208E110CB
:100DE000EA94015010400115110579F7EAC09436D4
:100DF00011F0993669F5F7FE08C0F50120813181BF
:100E00004281538184E090E00AC0F50180819181A4
:100E10009C01442737FD4095542F82E090E0A80EB6
:100E2000B91E9FE6F92257FF09C0509540953095AD
:100E300021953F4F4F4F5F4FE0E8FE2ACA01B901AD
:100E4000A1012AE030E00E943E08D82ED21840C00E
:100E5000953729F41F2D1F7E2AE030E01DC01F2D7D
:100E6000197F9F3661F0903720F4983509F0ACC0B7
:100E70000FC0903739F0983709F0A6C004C028E0B9
:100E800030E00AC0106114FD146020E130E004C0BD
:100E900014FD166020E132E017FF08C0F501608103
:100EA00071818281938144E050E008C0F501808126
:100EB0009181BC0180E090E042E050E0A40EB51EBC
:100EC000A1010E943E08D82ED2188FE7F82EF122F9
:100ED000F6FE0BC05EEFF522D91438F4F4FE07C01D
:100EE000F2FC05C08FEEF82202C01D2D01C0192DA5
:100EF000F4FE0DC0FE01ED0DF11D8081803319F46B
:100F000099EEF92208C01F5FF2FE05C003C08F2DC5
:100F1000867809F01F5F0F2DF3FC14C0F0FE0FC0A0
:100F20001E1510F09D2C0BC09D2C9E0C911A1E2D91
:100F300006C080E290E0B3010E9412081F5F1E15F8
:100F4000C0F304C01E1510F4E11A01C0EE2404FF22
:100F50000FC080E390E0B3010E94120802FF1DC0A1
:100F600001FD03C088E790E00EC088E590E00BC06B
:100F7000802F867891F001FF02C08BE201C080E2F1
:100F8000F7FC8DE290E0B3010E94120806C080E3F6
:100F900090E0B3010E9412089A94D914C0F3DA9435
:100FA000F101ED0DF11D808190E0B3010E94120866
:100FB000DD20A9F706C080E290E0B3010E9412088C
:100FC000EA94EE20C1F743CEF30166817781CB012D
:100FD0002B96E2E10C94CC08FC0105906150704026
:100FE0000110D8F7809590958E0F9F1F0895FC01F2
:100FF0006150704001900110D8F7809590958E0F48
:101000009F1F0895DC01FC01672F71917723E1F7A1
:10101000329704C07C916D9370836291AE17BF07C5
:10102000C8F308950F931F93CF93DF938C01EB01C7
:101030008B8181FF1BC082FF0DC02E813F818C817F
:101040009D812817390764F4E881F9810193F983B8
:10105000E88306C0E885F985802F0995892B31F44E
:101060008E819F8101969F838E8302C00FEF1FEFB9
:10107000C801DF91CF911F910F910895FA01AA271E
:10108000283051F1203181F1E8946F936E7F6E5FCB
:101090007F4F8F4F9F4FAF4FB1E03ED0B4E03CD079
:1010A000670F781F891F9A1FA11D680F791F8A1F5C
:1010B000911DA11D6A0F711D811D911DA11D20D0C3
:1010C00009F468943F912AE0269F11243019305D7D
:1010D0003193DEF6CF010895462F4770405D41936E
:1010E000B3E00FD0C9F7F6CF462F4F70405D4A33BB
:1010F00018F0495D31FD4052419302D0A9F7EACF83
:10110000B4E0A6959795879577956795BA95C9F7B1
:1011100000976105710508959B01AC010A2E0694A4
:101120005795479537952795BA95C9F7620F731F5D
:10113000841F951FA01D0895AA1BBB1B51E107C06A
:10114000AA1FBB1FA617B70710F0A61BB70B881F57
:10115000991F5A95A9F780959095BC01CD010895E6
:101160002F923F924F925F926F927F928F929F92B7
:10117000AF92BF92CF92DF92EF92FF920F931F93A5
:10118000CF93DF93CDB7DEB7CA1BDB0B0FB6F89456
:10119000DEBF0FBECDBF09942A88398848885F8496
:1011A0006E847D848C849B84AA84B984C884DF8007
:1011B000EE80FD800C811B81AA81B981CE0FD11DEB
:1011C0000FB6F894DEBF0FBECDBFED010895F894C1
:0211D000FFCF4F
:1011D200736C6F77006D656469756D006661737419
:1011E20000416C6C0062756E6B65727300636C61BA
:1011F200696D6564210042756E6B65720042756EA1
:0C1202006B6572733A0025642F256400B0
:00000001FF
